{
  "contractName": "Contest",
  "abi": [
    {
      "anonymous": false,
      "inputs": [],
      "name": "UpdateContestants",
      "type": "event"
    },
    {
      "constant": true,
      "inputs": [
        {
          "internalType": "uint256",
          "name": "",
          "type": "uint256"
        }
      ],
      "name": "stateExist",
      "outputs": [
        {
          "internalType": "bool",
          "name": "",
          "type": "bool"
        }
      ],
      "payable": false,
      "stateMutability": "view",
      "type": "function"
    },
    {
      "constant": true,
      "inputs": [
        {
          "internalType": "uint256",
          "name": "",
          "type": "uint256"
        }
      ],
      "name": "states",
      "outputs": [
        {
          "internalType": "uint256",
          "name": "id",
          "type": "uint256"
        },
        {
          "internalType": "string",
          "name": "stateName",
          "type": "string"
        },
        {
          "internalType": "uint256",
          "name": "contestsCount",
          "type": "uint256"
        }
      ],
      "payable": false,
      "stateMutability": "view",
      "type": "function"
    },
    {
      "constant": true,
      "inputs": [],
      "name": "statesCount",
      "outputs": [
        {
          "internalType": "uint256",
          "name": "",
          "type": "uint256"
        }
      ],
      "payable": false,
      "stateMutability": "view",
      "type": "function"
    },
    {
      "constant": true,
      "inputs": [
        {
          "internalType": "uint256",
          "name": "stateId",
          "type": "uint256"
        }
      ],
      "name": "getContestsCountFromState",
      "outputs": [
        {
          "internalType": "uint256",
          "name": "",
          "type": "uint256"
        }
      ],
      "payable": false,
      "stateMutability": "view",
      "type": "function"
    },
    {
      "constant": true,
      "inputs": [
        {
          "internalType": "uint256",
          "name": "stateId",
          "type": "uint256"
        },
        {
          "internalType": "uint256",
          "name": "contestId",
          "type": "uint256"
        }
      ],
      "name": "getContestantsCountFromStateContest",
      "outputs": [
        {
          "internalType": "uint256",
          "name": "",
          "type": "uint256"
        }
      ],
      "payable": false,
      "stateMutability": "view",
      "type": "function"
    },
    {
      "constant": true,
      "inputs": [
        {
          "internalType": "uint256",
          "name": "stateId",
          "type": "uint256"
        },
        {
          "internalType": "uint256",
          "name": "contestId",
          "type": "uint256"
        }
      ],
      "name": "getContestsFromState",
      "outputs": [
        {
          "internalType": "uint256",
          "name": "a",
          "type": "uint256"
        },
        {
          "internalType": "string",
          "name": "s",
          "type": "string"
        }
      ],
      "payable": false,
      "stateMutability": "view",
      "type": "function"
    },
    {
      "constant": true,
      "inputs": [
        {
          "internalType": "uint256",
          "name": "stateId",
          "type": "uint256"
        },
        {
          "internalType": "uint256",
          "name": "contestId",
          "type": "uint256"
        },
        {
          "internalType": "uint256",
          "name": "contestantId",
          "type": "uint256"
        }
      ],
      "name": "getContestantFromContestAndState",
      "outputs": [
        {
          "internalType": "uint256",
          "name": "a",
          "type": "uint256"
        },
        {
          "internalType": "string",
          "name": "s",
          "type": "string"
        },
        {
          "internalType": "uint256",
          "name": "b",
          "type": "uint256"
        }
      ],
      "payable": false,
      "stateMutability": "view",
      "type": "function"
    },
    {
      "constant": false,
      "inputs": [
        {
          "internalType": "string",
          "name": "name",
          "type": "string"
        }
      ],
      "name": "addState",
      "outputs": [],
      "payable": false,
      "stateMutability": "nonpayable",
      "type": "function"
    },
    {
      "constant": false,
      "inputs": [
        {
          "internalType": "uint256",
          "name": "stateId",
          "type": "uint256"
        },
        {
          "internalType": "string",
          "name": "name",
          "type": "string"
        }
      ],
      "name": "addContest",
      "outputs": [],
      "payable": false,
      "stateMutability": "nonpayable",
      "type": "function"
    },
    {
      "constant": false,
      "inputs": [
        {
          "internalType": "uint256",
          "name": "stateId",
          "type": "uint256"
        },
        {
          "internalType": "uint256",
          "name": "contestId",
          "type": "uint256"
        },
        {
          "internalType": "string",
          "name": "name",
          "type": "string"
        }
      ],
      "name": "addContestant",
      "outputs": [],
      "payable": false,
      "stateMutability": "nonpayable",
      "type": "function"
    },
    {
      "constant": false,
      "inputs": [
        {
          "internalType": "uint256",
          "name": "stateId",
          "type": "uint256"
        },
        {
          "internalType": "uint256",
          "name": "contestId",
          "type": "uint256"
        },
        {
          "internalType": "uint256",
          "name": "contestantId",
          "type": "uint256"
        },
        {
          "internalType": "uint256",
          "name": "adhaar",
          "type": "uint256"
        }
      ],
      "name": "castVote",
      "outputs": [],
      "payable": false,
      "stateMutability": "nonpayable",
      "type": "function"
    }
  ],
  "bytecode": "0x608060405234801561001057600080fd5b50610f37806100206000396000f3fe608060405234801561001057600080fd5b50600436106100a95760003560e01c80632d4f2b52116100715780632d4f2b521461035757806359ff0fad1461042057806363396980146104625780636658fb84146104a857806382ac093714610560578063a1b00a3414610625576100a9565b8063017a9105146100ae5780631c6fc850146101635780631feee264146101af578063232691731461027e5780632a34ede11461029c575b600080fd5b6100da600480360360208110156100c457600080fd5b8101908080359060200190929190505050610671565b6040518084815260200180602001838152602001828103825284818151815260200191508051906020019080838360005b8381101561012657808201518184015260208101905061010b565b50505050905090810190601f1680156101535780820380516001836020036101000a031916815260200191505b5094505050505060405180910390f35b6101ad6004803603608081101561017957600080fd5b8101908080359060200190929190803590602001909291908035906020019092919080359060200190929190505050610733565b005b61027c600480360360608110156101c557600080fd5b810190808035906020019092919080359060200190929190803590602001906401000000008111156101f657600080fd5b82018360208201111561020857600080fd5b8035906020019184600183028401116401000000008311171561022a57600080fd5b91908080601f016020809104026020016040519081016040528093929190818152602001838380828437600081840152601f19601f820116905080830192505050505050509192919290505050610859565b005b6102866109b7565b6040518082815260200191505060405180910390f35b610355600480360360208110156102b257600080fd5b81019080803590602001906401000000008111156102cf57600080fd5b8201836020820111156102e157600080fd5b8035906020019184600183028401116401000000008311171561030357600080fd5b91908080601f016020809104026020016040519081016040528093929190818152602001838380828437600081840152601f19601f8201169050808301925050505050505091929192905050506109bd565b005b6103976004803603606081101561036d57600080fd5b81019080803590602001909291908035906020019092919080359060200190929190505050610a65565b6040518084815260200180602001838152602001828103825284818151815260200191508051906020019080838360005b838110156103e35780820151818401526020810190506103c8565b50505050905090810190601f1680156104105780820380516001836020036101000a031916815260200191505b5094505050505060405180910390f35b61044c6004803603602081101561043657600080fd5b8101908080359060200190929190505050610bcc565b6040518082815260200191505060405180910390f35b61048e6004803603602081101561047857600080fd5b8101908080359060200190929190505050610beb565b604051808215151515815260200191505060405180910390f35b6104de600480360360408110156104be57600080fd5b810190808035906020019092919080359060200190929190505050610c0b565b6040518083815260200180602001828103825283818151815260200191508051906020019080838360005b83811015610524578082015181840152602081019050610509565b50505050905090810190601f1680156105515780820380516001836020036101000a031916815260200191505b50935050505060405180910390f35b6106236004803603604081101561057657600080fd5b81019080803590602001909291908035906020019064010000000081111561059d57600080fd5b8201836020820111156105af57600080fd5b803590602001918460018302840111640100000000831117156105d157600080fd5b91908080601f016020809104026020016040519081016040528093929190818152602001838380828437600081840152601f19601f820116905080830192505050505050509192919290505050610d06565b005b61065b6004803603604081101561063b57600080fd5b810190808035906020019092919080359060200190929190505050610e29565b6040518082815260200191505060405180910390f35b6000602052806000526040600020600091509050806000015490806001018054600181600116156101000203166002900480601f0160208091040260200160405190810160405280929190818152602001828054600181600116156101000203166002900480156107235780601f106106f857610100808354040283529160200191610723565b820191906000526020600020905b81548152906001019060200180831161070657829003601f168201915b5050505050908060040154905083565b6000808581526020019081526020016000206002016000848152602001908152602001600020600301600082815260200190815260200160002060009054906101000a900460ff161561078557600080fd5b6000831180156107aa5750600080858152602001908152602001600020600401548311155b6107b357600080fd5b60016000808681526020019081526020016000206002016000858152602001908152602001600020600301600083815260200190815260200160002060006101000a81548160ff021916908315150217905550600080858152602001908152602001600020600201600084815260200190815260200160002060020160008381526020019081526020016000206002016000815480929190600101919050555050505050565b6001600084815260200190815260200160002060009054906101000a900460ff1661088357600080fd5b600080848152602001908152602001600020600301600083815260200190815260200160002060009054906101000a900460ff166108c057600080fd5b6000808481526020019081526020016000206002016000838152602001908152602001600020600401600081548092919060010191905055506000806000858152602001908152602001600020600201600084815260200190815260200160002060040154905060405180606001604052808281526020018381526020016000815250600080868152602001908152602001600020600201600085815260200190815260200160002060020160008381526020019081526020016000206000820151816000015560208201518160010190805190602001906109a3929190610e5d565b506040820151816002015590505050505050565b60025481565b6002600081548092919060010191905055506040518060600160405280600254815260200182815260200160008152506000806002548152602001908152602001600020600082015181600001556020820151816001019080519060200190610a27929190610e5d565b50604082015181600401559050506001806000600254815260200190815260200160002060006101000a81548160ff02191690831515021790555050565b60006060600080600087815260200190815260200160002060020160008681526020019081526020016000206002016000858152602001908152602001600020600001549250600080878152602001908152602001600020600201600086815260200190815260200160002060020160008581526020019081526020016000206001018054600181600116156101000203166002900480601f016020809104026020016040519081016040528092919081815260200182805460018160011615610100020316600290048015610b7c5780601f10610b5157610100808354040283529160200191610b7c565b820191906000526020600020905b815481529060010190602001808311610b5f57829003601f168201915b505050505091506000808781526020019081526020016000206002016000868152602001908152602001600020600201600085815260200190815260200160002060020154905093509350939050565b6000806000838152602001908152602001600020600401549050919050565b60016020528060005260406000206000915054906101000a900460ff1681565b60006060600080858152602001908152602001600020600201600084815260200190815260200160002060000154915060008085815260200190815260200160002060020160008481526020019081526020016000206001018054600181600116156101000203166002900480601f016020809104026020016040519081016040528092919081815260200182805460018160011615610100020316600290048015610cf85780601f10610ccd57610100808354040283529160200191610cf8565b820191906000526020600020905b815481529060010190602001808311610cdb57829003601f168201915b505050505090509250929050565b6001600083815260200190815260200160002060009054906101000a900460ff16610d3057600080fd5b600080838152602001908152602001600020600401600081548092919060010191905055506000806000848152602001908152602001600020600401549050604051806060016040528082815260200183815260200160008152506000808581526020019081526020016000206002016000838152602001908152602001600020600082015181600001556020820151816001019080519060200190610dd7929190610e5d565b50604082015181600401559050506001600080858152602001908152602001600020600301600083815260200190815260200160002060006101000a81548160ff021916908315150217905550505050565b6000806000848152602001908152602001600020600201600083815260200190815260200160002060040154905092915050565b828054600181600116156101000203166002900490600052602060002090601f016020900481019282601f10610e9e57805160ff1916838001178555610ecc565b82800160010185558215610ecc579182015b82811115610ecb578251825591602001919060010190610eb0565b5b509050610ed99190610edd565b5090565b610eff91905b80821115610efb576000816000905550600101610ee3565b5090565b9056fea265627a7a7231582056fa466ac4a98ccbaddc815f8583da1a3f077260f12987216171af914d84591764736f6c63430005100032",
  "source": "pragma solidity >=0.4.21 <0.7.0;\r\n\r\ncontract Contest{\r\n    \r\n    struct Contestant{\r\n        uint id;\r\n        string name;\r\n        uint voteCount;\r\n    }\r\n\r\n    struct ContestInit{\r\n        uint id;\r\n        string contestName;\r\n        // to store contestants as a key-value pair (id-Contestant):\r\n        mapping(uint => Contestant) contestants;\r\n\r\n        // to store voter has voted or not\r\n        mapping(uint => bool) voters;\r\n\r\n        // mapping don't have size property. To maintain #contestants:\r\n        uint contestantCount;\r\n    }\r\n    \r\n    struct State{\r\n        uint id;\r\n        string stateName;\r\n        mapping(uint => ContestInit) contests;\r\n        mapping(uint => bool) contestExist;\r\n        uint contestsCount;\r\n    }\r\n\r\n    // logs (kinda reciept)\r\n    event UpdateContestants();\r\n\r\n    mapping (uint=>State) public states;\r\n    mapping (uint=>bool) public stateExist;\r\n    uint public statesCount;\r\n\r\n    function getContestsCountFromState(uint stateId) public view returns (uint){\r\n        return states[stateId].contestsCount;\r\n    }\r\n\r\n    function getContestantsCountFromStateContest(uint stateId,uint contestId) public view returns (uint) {\r\n        return states[stateId].contests[contestId].contestantCount;\r\n    }\r\n\r\n    function getContestsFromState(uint stateId,uint contestId) public view returns (uint a,string memory s){\r\n\r\n        a = states[stateId].contests[contestId].id;\r\n        s = states[stateId].contests[contestId].contestName;        \r\n    }\r\n\r\n    function getContestantFromContestAndState(uint stateId,uint contestId,uint contestantId) public view returns (uint a,string memory s,uint b){\r\n\r\n        a = states[stateId].contests[contestId].contestants[contestantId].id;\r\n        s = states[stateId].contests[contestId].contestants[contestantId].name;        \r\n        b = states[stateId].contests[contestId].contestants[contestantId].voteCount;\r\n    }\r\n\r\n\r\n\r\n    function addState(string memory name) public {\r\n        statesCount++;\r\n        states[statesCount] = State({id:statesCount,stateName:name,contestsCount:0});\r\n        stateExist[statesCount] = true;\r\n    }\r\n\r\n    function addContest(uint stateId,string memory name) public{\r\n        require(stateExist[stateId]);\r\n\r\n        states[stateId].contestsCount++;\r\n        uint ID = states[stateId].contestsCount;\r\n        states[stateId].contests[ID] = ContestInit(ID,name,0);\r\n        states[stateId].contestExist[ID] = true;\r\n    }\r\n\r\n    function addContestant(uint stateId, uint contestId, string memory name) public{\r\n\r\n        require(stateExist[stateId]);\r\n        require(states[stateId].contestExist[contestId]);\r\n\r\n        states[stateId].contests[contestId].contestantCount++;\r\n        uint ct = states[stateId].contests[contestId].contestantCount;\r\n\r\n        states[stateId].contests[contestId].contestants[ct] = Contestant(ct,name,0);\r\n    }\r\n\r\n    function castVote(uint stateId,uint contestId,uint contestantId,uint adhaar) public {\r\n        \r\n        require(!states[stateId].contests[contestId].voters[adhaar]);\r\n        require(contestId > 0 && contestId <= states[stateId].contestsCount);\r\n\r\n        states[stateId].contests[contestId].voters[adhaar] = true;\r\n        states[stateId].contests[contestId].contestants[contestantId].voteCount++;\r\n\r\n    }    \r\n\r\n    //************ BASIC *************//\r\n    \r\n    // function addContestant(string memory name) public {\r\n    //     contestantCount++;\r\n    //     // adding new contestant with 0 vote count.\r\n    //     contestants[contestantCount] = Contestant(contestantCount,name,0);\r\n    //     emit UpdateContestants();\r\n    // }\r\n\r\n    // function castVote(uint contestantId) public {\r\n    //     require(!voters[msg.sender]);\r\n    //     require(contestantId > 0 && contestantCount <= contestantCount);\r\n\r\n    //     voters[msg.sender] = true;\r\n    //     contestants[contestantId].voteCount++;\r\n\r\n    // }\r\n\r\n}",
  "sourcePath": "D:/React-Projects/evote/contracts/Contest.sol",
  "compiler": {
    "name": "solc",
    "version": "0.5.16+commit.9c3226ce.Emscripten.clang"
  },
  "schemaVersion": "3.4.0",
  "updatedAt": "2021-06-07T05:42:08.626Z",
  "networkType": "ethereum",
  "devdoc": {
    "methods": {}
  },
  "userdoc": {
    "methods": {}
  }
}